{
  "_format": "hh-sol-artifact-1",
  "contractName": "ClawdInvoiceEscrow",
  "sourceName": "contracts/ClawdInvoiceEscrow.sol",
  "abi": [
    {
      "inputs": [
        {
          "internalType": "address",
          "name": "_usdcToken",
          "type": "address"
        }
      ],
      "stateMutability": "nonpayable",
      "type": "constructor"
    },
    {
      "inputs": [
        {
          "internalType": "address",
          "name": "owner",
          "type": "address"
        }
      ],
      "name": "OwnableInvalidOwner",
      "type": "error"
    },
    {
      "inputs": [
        {
          "internalType": "address",
          "name": "account",
          "type": "address"
        }
      ],
      "name": "OwnableUnauthorizedAccount",
      "type": "error"
    },
    {
      "inputs": [],
      "name": "ReentrancyGuardReentrantCall",
      "type": "error"
    },
    {
      "anonymous": false,
      "inputs": [
        {
          "indexed": true,
          "internalType": "address",
          "name": "agent",
          "type": "address"
        }
      ],
      "name": "AgentVerified",
      "type": "event"
    },
    {
      "anonymous": false,
      "inputs": [
        {
          "indexed": true,
          "internalType": "uint256",
          "name": "invoiceId",
          "type": "uint256"
        },
        {
          "indexed": true,
          "internalType": "address",
          "name": "from",
          "type": "address"
        },
        {
          "indexed": true,
          "internalType": "address",
          "name": "to",
          "type": "address"
        },
        {
          "indexed": false,
          "internalType": "uint256",
          "name": "amount",
          "type": "uint256"
        },
        {
          "indexed": false,
          "internalType": "string",
          "name": "description",
          "type": "string"
        },
        {
          "indexed": false,
          "internalType": "uint256",
          "name": "deadline",
          "type": "uint256"
        }
      ],
      "name": "InvoiceCreated",
      "type": "event"
    },
    {
      "anonymous": false,
      "inputs": [
        {
          "indexed": true,
          "internalType": "uint256",
          "name": "invoiceId",
          "type": "uint256"
        },
        {
          "indexed": false,
          "internalType": "uint256",
          "name": "amount",
          "type": "uint256"
        }
      ],
      "name": "InvoiceRefunded",
      "type": "event"
    },
    {
      "anonymous": false,
      "inputs": [
        {
          "indexed": true,
          "internalType": "uint256",
          "name": "invoiceId",
          "type": "uint256"
        },
        {
          "indexed": false,
          "internalType": "uint256",
          "name": "amount",
          "type": "uint256"
        }
      ],
      "name": "InvoiceReleased",
      "type": "event"
    },
    {
      "anonymous": false,
      "inputs": [
        {
          "indexed": true,
          "internalType": "uint256",
          "name": "invoiceId",
          "type": "uint256"
        }
      ],
      "name": "InvoiceVerified",
      "type": "event"
    },
    {
      "anonymous": false,
      "inputs": [
        {
          "indexed": true,
          "internalType": "address",
          "name": "previousOwner",
          "type": "address"
        },
        {
          "indexed": true,
          "internalType": "address",
          "name": "newOwner",
          "type": "address"
        }
      ],
      "name": "OwnershipTransferred",
      "type": "event"
    },
    {
      "inputs": [
        {
          "internalType": "address",
          "name": "_agent",
          "type": "address"
        }
      ],
      "name": "addVerifiedAgent",
      "outputs": [],
      "stateMutability": "nonpayable",
      "type": "function"
    },
    {
      "inputs": [
        {
          "internalType": "address",
          "name": "_to",
          "type": "address"
        },
        {
          "internalType": "uint256",
          "name": "_amount",
          "type": "uint256"
        },
        {
          "internalType": "string",
          "name": "_description",
          "type": "string"
        },
        {
          "internalType": "uint256",
          "name": "_deadlineHours",
          "type": "uint256"
        },
        {
          "internalType": "bool",
          "name": "_escrow",
          "type": "bool"
        }
      ],
      "name": "createInvoice",
      "outputs": [
        {
          "internalType": "uint256",
          "name": "",
          "type": "uint256"
        }
      ],
      "stateMutability": "nonpayable",
      "type": "function"
    },
    {
      "inputs": [],
      "name": "emergencyWithdraw",
      "outputs": [],
      "stateMutability": "nonpayable",
      "type": "function"
    },
    {
      "inputs": [
        {
          "internalType": "uint256",
          "name": "_invoiceId",
          "type": "uint256"
        }
      ],
      "name": "getInvoice",
      "outputs": [
        {
          "components": [
            {
              "internalType": "address",
              "name": "from",
              "type": "address"
            },
            {
              "internalType": "address",
              "name": "to",
              "type": "address"
            },
            {
              "internalType": "uint256",
              "name": "amount",
              "type": "uint256"
            },
            {
              "internalType": "string",
              "name": "description",
              "type": "string"
            },
            {
              "internalType": "bool",
              "name": "isEscrow",
              "type": "bool"
            },
            {
              "internalType": "bool",
              "name": "workVerified",
              "type": "bool"
            },
            {
              "internalType": "bool",
              "name": "paid",
              "type": "bool"
            },
            {
              "internalType": "uint256",
              "name": "createdAt",
              "type": "uint256"
            },
            {
              "internalType": "uint256",
              "name": "deadline",
              "type": "uint256"
            },
            {
              "internalType": "string",
              "name": "metadata",
              "type": "string"
            }
          ],
          "internalType": "struct ClawdInvoiceEscrow.Invoice",
          "name": "",
          "type": "tuple"
        }
      ],
      "stateMutability": "view",
      "type": "function"
    },
    {
      "inputs": [],
      "name": "getInvoiceCount",
      "outputs": [
        {
          "internalType": "uint256",
          "name": "",
          "type": "uint256"
        }
      ],
      "stateMutability": "view",
      "type": "function"
    },
    {
      "inputs": [
        {
          "internalType": "uint256",
          "name": "",
          "type": "uint256"
        }
      ],
      "name": "invoices",
      "outputs": [
        {
          "internalType": "address",
          "name": "from",
          "type": "address"
        },
        {
          "internalType": "address",
          "name": "to",
          "type": "address"
        },
        {
          "internalType": "uint256",
          "name": "amount",
          "type": "uint256"
        },
        {
          "internalType": "string",
          "name": "description",
          "type": "string"
        },
        {
          "internalType": "bool",
          "name": "isEscrow",
          "type": "bool"
        },
        {
          "internalType": "bool",
          "name": "workVerified",
          "type": "bool"
        },
        {
          "internalType": "bool",
          "name": "paid",
          "type": "bool"
        },
        {
          "internalType": "uint256",
          "name": "createdAt",
          "type": "uint256"
        },
        {
          "internalType": "uint256",
          "name": "deadline",
          "type": "uint256"
        },
        {
          "internalType": "string",
          "name": "metadata",
          "type": "string"
        }
      ],
      "stateMutability": "view",
      "type": "function"
    },
    {
      "inputs": [],
      "name": "owner",
      "outputs": [
        {
          "internalType": "address",
          "name": "",
          "type": "address"
        }
      ],
      "stateMutability": "view",
      "type": "function"
    },
    {
      "inputs": [
        {
          "internalType": "uint256",
          "name": "_invoiceId",
          "type": "uint256"
        }
      ],
      "name": "refundInvoice",
      "outputs": [],
      "stateMutability": "nonpayable",
      "type": "function"
    },
    {
      "inputs": [
        {
          "internalType": "uint256",
          "name": "_invoiceId",
          "type": "uint256"
        }
      ],
      "name": "releasePayment",
      "outputs": [],
      "stateMutability": "nonpayable",
      "type": "function"
    },
    {
      "inputs": [],
      "name": "renounceOwnership",
      "outputs": [],
      "stateMutability": "nonpayable",
      "type": "function"
    },
    {
      "inputs": [
        {
          "internalType": "address",
          "name": "newOwner",
          "type": "address"
        }
      ],
      "name": "transferOwnership",
      "outputs": [],
      "stateMutability": "nonpayable",
      "type": "function"
    },
    {
      "inputs": [],
      "name": "usdcToken",
      "outputs": [
        {
          "internalType": "contract IERC20",
          "name": "",
          "type": "address"
        }
      ],
      "stateMutability": "view",
      "type": "function"
    },
    {
      "inputs": [
        {
          "internalType": "address",
          "name": "",
          "type": "address"
        }
      ],
      "name": "verifiedAgents",
      "outputs": [
        {
          "internalType": "bool",
          "name": "",
          "type": "bool"
        }
      ],
      "stateMutability": "view",
      "type": "function"
    },
    {
      "inputs": [
        {
          "internalType": "uint256",
          "name": "_invoiceId",
          "type": "uint256"
        }
      ],
      "name": "verifyWork",
      "outputs": [],
      "stateMutability": "nonpayable",
      "type": "function"
    }
  ],
  "bytecode": "0x608060405234801561001057600080fd5b5060405161171338038061171383398101604081905261002f916100db565b6001600055338061005a57604051631e4fbdf760e01b81526000600482015260240160405180910390fd5b61006381610089565b50600280546001600160a01b0319166001600160a01b039290921691909117905561010b565b600180546001600160a01b038381166001600160a01b0319831681179093556040519116919082907f8be0079c531659141344cd1fd0a4f28419497f9722a3daafe3b4186f6b6457e090600090a35050565b6000602082840312156100ed57600080fd5b81516001600160a01b038116811461010457600080fd5b9392505050565b6115f98061011a6000396000f3fe608060405234801561001057600080fd5b50600436106100ea5760003560e01c80637d6a59ed1161008c578063ae82455f11610066578063ae82455f146101e5578063aeff1f5514610218578063db2e21bc1461022b578063f2fde38b1461023357600080fd5b80637d6a59ed146101b957806388685cd9146101c15780638da5cb5b146101d457600080fd5b80634845b884116100c85780634845b884146101545780634e6d1405146101675780636b326d9914610190578063715018a6146101b157600080fd5b806311eac855146100ef5780631c1b53d91461011f5780633a23cc0a14610134575b600080fd5b600254610102906001600160a01b031681565b6040516001600160a01b0390911681526020015b60405180910390f35b61013261012d3660046110d2565b610246565b005b6101476101423660046110d2565b61032e565b6040516101169190611131565b6101326101623660046110d2565b610558565b61017a6101753660046110d2565b61073d565b6040516101169a999897969594939291906111f4565b6101a361019e36600461129d565b6108b4565b604051908152602001610116565b610132610cb7565b6003546101a3565b6101326101cf3660046110d2565b610ccb565b6001546001600160a01b0316610102565b6102086101f3366004611347565b60056020526000908152604090205460ff1681565b6040519015158152602001610116565b610132610226366004611347565b610e85565b610132610ed9565b610132610241366004611347565b610fee565b60008181526004602081905260409091209081015462010000900460ff161561028a5760405162461bcd60e51b815260040161028190611369565b60405180910390fd5b80546001600160a01b03163314806102b157503360009081526005602052604090205460ff165b6102ee5760405162461bcd60e51b815260206004820152600e60248201526d139bdd08185d5d1a1bdc9a5e995960921b6044820152606401610281565b60048101805461ff00191661010017905560405182907f37e578170c3ca94855b2ce5a1241b83b2feea247a181ab76fe129a1a02b6232c90600090a25050565b61039c60405180610140016040528060006001600160a01b0316815260200160006001600160a01b0316815260200160008152602001606081526020016000151581526020016000151581526020016000151581526020016000815260200160008152602001606081525090565b60008281526004602090815260409182902082516101408101845281546001600160a01b039081168252600183015416928101929092526002810154928201929092526003820180549192916060840191906103f79061138f565b80601f01602080910402602001604051908101604052809291908181526020018280546104239061138f565b80156104705780601f1061044557610100808354040283529160200191610470565b820191906000526020600020905b81548152906001019060200180831161045357829003601f168201915b5050509183525050600482015460ff80821615156020840152610100820481161515604084015262010000909104161515606082015260058201546080820152600682015460a082015260078201805460c0909201916104cf9061138f565b80601f01602080910402602001604051908101604052809291908181526020018280546104fb9061138f565b80156105485780601f1061051d57610100808354040283529160200191610548565b820191906000526020600020905b81548152906001019060200180831161052b57829003601f168201915b5050505050815250509050919050565b610560611029565b60008181526004602081905260409091209081015462010000900460ff161561059b5760405162461bcd60e51b815260040161028190611369565b600681015481546001830154429290921191336001600160a01b03928316811492919091161482806105ca5750815b806105d25750805b6106125760405162461bcd60e51b815260206004820152601160248201527010d85b9b9bdd081c99599d5b99081e595d607a1b6044820152606401610281565b60048401805462ff0000198116620100001790915560ff16156106ee576002805485549186015460405163a9059cbb60e01b81526001600160a01b039384166004820152602481019190915291169063a9059cbb906044016020604051808303816000875af1158015610689573d6000803e3d6000fd5b505050506040513d601f19601f820116820180604052508101906106ad91906113c9565b6106ee5760405162461bcd60e51b81526020600482015260126024820152711554d110c81c99599d5b990819985a5b195960721b6044820152606401610281565b847f9b9148ed235ed98d5304777a5228506d31970c2224259e399c1dc025525f1176856002015460405161072491815260200190565b60405180910390a25050505061073a6001600055565b50565b60046020526000908152604090208054600182015460028301546003840180546001600160a01b0394851695949093169391926107799061138f565b80601f01602080910402602001604051908101604052809291908181526020018280546107a59061138f565b80156107f25780601f106107c7576101008083540402835291602001916107f2565b820191906000526020600020905b8154815290600101906020018083116107d557829003601f168201915b50505050600483015460058401546006850154600786018054959660ff808616976101008704821697506201000090960416949091906108319061138f565b80601f016020809104026020016040519081016040528092919081815260200182805461085d9061138f565b80156108aa5780601f1061087f576101008083540402835291602001916108aa565b820191906000526020600020905b81548152906001019060200180831161088d57829003601f168201915b505050505090508a565b60006108be611029565b6001600160a01b0387166109085760405162461bcd60e51b8152602060048201526011602482015270125b9d985b1a59081c9958da5c1a595b9d607a1b6044820152606401610281565b336001600160a01b038816036109565760405162461bcd60e51b815260206004820152601360248201527221b0b73737ba1034b73b37b4b1b29039b2b63360691b6044820152606401610281565b6000861161099b5760405162461bcd60e51b81526020600482015260126024820152710416d6f756e74206d757374206265203e20360741b6044820152606401610281565b6000831180156109ad57506102d08311155b6109ec5760405162461bcd60e51b815260206004820152601060248201526f496e76616c696420646561646c696e6560801b6044820152606401610281565b6003805490819060006109fe836113fc565b91905055508215610ac7576002546040516323b872dd60e01b8152336004820152306024820152604481018990526001600160a01b03909116906323b872dd906064016020604051808303816000875af1158015610a60573d6000803e3d6000fd5b505050506040513d601f19601f82011682018060405250810190610a8491906113c9565b610ac75760405162461bcd60e51b81526020600482015260146024820152731554d110c81d1c985b9cd9995c8819985a5b195960621b6044820152606401610281565b604051806101400160405280336001600160a01b03168152602001896001600160a01b0316815260200188815260200187878080601f0160208091040260200160405190810160405280939291908181526020018383808284376000920182905250938552505050851515602083015260408201819052606082015242608082015260a001610b5886610e10611415565b610b629042611432565b815260408051602080820183526000808352938101919091528483526004815291819020835181546001600160a01b03199081166001600160a01b0392831617835593850151600183018054909516911617909255820151600282015560608201516003820190610bd390826114aa565b50608082015160048201805460a085015160c086015161ffff1990921693151561ff0019169390931761010093151584021762ff00001916620100009115159190910217905560e0830151600583015582015160068201556101208201516007820190610c4090826114aa565b505050600081815260046020526040908190206006015490516001600160a01b038a1691339184917f78d216904be44693f6f85590307bee4201c1f062c34754a8630012f4123cbb9591610c99918d918d918d9161156a565b60405180910390a49050610cad6001600055565b9695505050505050565b610cbf611053565b610cc96000611080565b565b610cd3611029565b60008181526004602081905260409091209081015462010000900460ff1615610d0e5760405162461bcd60e51b815260040161028190611369565b6004810154610100900460ff16610d5b5760405162461bcd60e51b815260206004820152601160248201527015dbdc9ac81b9bdd081d995c9a599a5959607a1b6044820152606401610281565b60048101805462ff0000198116620100001790915560ff1615610e3c576002805460018301549183015460405163a9059cbb60e01b81526001600160a01b039384166004820152602481019190915291169063a9059cbb906044016020604051808303816000875af1158015610dd5573d6000803e3d6000fd5b505050506040513d601f19601f82011682018060405250810190610df991906113c9565b610e3c5760405162461bcd60e51b81526020600482015260146024820152731554d110c81d1c985b9cd9995c8819985a5b195960621b6044820152606401610281565b817f8e3b930432b64b3a17741ce35d2c2d078f07d73e749a6f849bce397d234de5c08260020154604051610e7291815260200190565b60405180910390a25061073a6001600055565b610e8d611053565b6001600160a01b038116600081815260056020526040808220805460ff19166001179055517fe7d6bf5d30c0487ac50ca3ea0eb7664b6068db8faa1b74ae85b1a02edab3b11c9190a250565b610ee1611053565b6002546040516370a0823160e01b81523060048201526000916001600160a01b0316906370a0823190602401602060405180830381865afa158015610f2a573d6000803e3d6000fd5b505050506040513d601f19601f82011682018060405250810190610f4e91906115aa565b9050801561073a576002546001600160a01b031663a9059cbb610f796001546001600160a01b031690565b6040516001600160e01b031960e084901b1681526001600160a01b039091166004820152602481018490526044016020604051808303816000875af1158015610fc6573d6000803e3d6000fd5b505050506040513d601f19601f82011682018060405250810190610fea91906113c9565b5050565b610ff6611053565b6001600160a01b03811661102057604051631e4fbdf760e01b815260006004820152602401610281565b61073a81611080565b60026000540361104c57604051633ee5aeb560e01b815260040160405180910390fd5b6002600055565b6001546001600160a01b03163314610cc95760405163118cdaa760e01b8152336004820152602401610281565b600180546001600160a01b038381166001600160a01b0319831681179093556040519116919082907f8be0079c531659141344cd1fd0a4f28419497f9722a3daafe3b4186f6b6457e090600090a35050565b6000602082840312156110e457600080fd5b5035919050565b6000815180845260005b81811015611111576020818501810151868301820152016110f5565b506000602082860101526020601f19601f83011685010191505092915050565b6020815261114b6020820183516001600160a01b03169052565b6000602083015161116760408401826001600160a01b03169052565b5060408301516060830152606083015161014080608085015261118e6101608501836110eb565b915060808501516111a360a086018215159052565b5060a085015180151560c08601525060c085015180151560e08601525060e08501516101008581019190915285015161012080860191909152850151848303601f190182860152610cad83826110eb565b6001600160a01b038b811682528a16602082015260408101899052610140606082018190526000906112288382018b6110eb565b9050881515608084015287151560a084015286151560c08401528560e08401528461010084015282810361012084015261126281856110eb565b9d9c50505050505050505050505050565b80356001600160a01b038116811461128a57600080fd5b919050565b801515811461073a57600080fd5b60008060008060008060a087890312156112b657600080fd5b6112bf87611273565b955060208701359450604087013567ffffffffffffffff808211156112e357600080fd5b818901915089601f8301126112f757600080fd5b81358181111561130657600080fd5b8a602082850101111561131857600080fd5b6020830196508095505050506060870135915060808701356113398161128f565b809150509295509295509295565b60006020828403121561135957600080fd5b61136282611273565b9392505050565b6020808252600c908201526b105b1c9958591e481c185a5960a21b604082015260600190565b600181811c908216806113a357607f821691505b6020821081036113c357634e487b7160e01b600052602260045260246000fd5b50919050565b6000602082840312156113db57600080fd5b81516113628161128f565b634e487b7160e01b600052601160045260246000fd5b60006001820161140e5761140e6113e6565b5060010190565b808202811582820484141761142c5761142c6113e6565b92915050565b8082018082111561142c5761142c6113e6565b634e487b7160e01b600052604160045260246000fd5b601f8211156114a557600081815260208120601f850160051c810160208610156114825750805b601f850160051c820191505b818110156114a15782815560010161148e565b5050505b505050565b815167ffffffffffffffff8111156114c4576114c4611445565b6114d8816114d2845461138f565b8461145b565b602080601f83116001811461150d57600084156114f55750858301515b600019600386901b1c1916600185901b1785556114a1565b600085815260208120601f198616915b8281101561153c5788860151825594840194600190910190840161151d565b508582101561155a5787850151600019600388901b60f8161c191681555b5050505050600190811b01905550565b848152606060208201528260608201528284608083013760006080848301015260006080601f19601f860116830101905082604083015295945050505050565b6000602082840312156115bc57600080fd5b505191905056fea2646970667358221220bef34e6d625ad390332517fddbf38dc70385a01f8653d16981db21ceca5bd69264736f6c63430008140033",
  "linkReferences": {},
  "deployedLinkReferences": {}
}